{
  "_format": "hh-sol-artifact-1",
  "contractName": "Token",
  "sourceName": "contracts/Token.sol",
  "abi": [
    {
      "inputs": [],
      "stateMutability": "nonpayable",
      "type": "constructor"
    },
    {
      "inputs": [
        {
          "internalType": "address",
          "name": "account",
          "type": "address"
        }
      ],
      "name": "balanceOf",
      "outputs": [
        {
          "internalType": "uint256",
          "name": "",
          "type": "uint256"
        }
      ],
      "stateMutability": "view",
      "type": "function"
    },
    {
      "inputs": [
        {
          "internalType": "uint256",
          "name": "_value",
          "type": "uint256"
        }
      ],
      "name": "burn",
      "outputs": [],
      "stateMutability": "nonpayable",
      "type": "function"
    },
    {
      "inputs": [
        {
          "internalType": "uint256",
          "name": "amount",
          "type": "uint256"
        }
      ],
      "name": "mint",
      "outputs": [],
      "stateMutability": "nonpayable",
      "type": "function"
    },
    {
      "inputs": [],
      "name": "name",
      "outputs": [
        {
          "internalType": "string",
          "name": "",
          "type": "string"
        }
      ],
      "stateMutability": "view",
      "type": "function"
    },
    {
      "inputs": [],
      "name": "owner",
      "outputs": [
        {
          "internalType": "address",
          "name": "",
          "type": "address"
        }
      ],
      "stateMutability": "view",
      "type": "function"
    },
    {
      "inputs": [],
      "name": "symbol",
      "outputs": [
        {
          "internalType": "string",
          "name": "",
          "type": "string"
        }
      ],
      "stateMutability": "view",
      "type": "function"
    },
    {
      "inputs": [],
      "name": "totalSupply",
      "outputs": [
        {
          "internalType": "uint256",
          "name": "",
          "type": "uint256"
        }
      ],
      "stateMutability": "view",
      "type": "function"
    },
    {
      "inputs": [
        {
          "internalType": "address",
          "name": "to",
          "type": "address"
        },
        {
          "internalType": "uint256",
          "name": "amount",
          "type": "uint256"
        }
      ],
      "name": "transfer",
      "outputs": [],
      "stateMutability": "nonpayable",
      "type": "function"
    }
  ],
  "bytecode": "0x60806040526040518060400160405280600a81526020017f5475746920546f6b656e000000000000000000000000000000000000000000008152506000908051906020019061004f92919061013c565b506040518060400160405280600481526020017f54555449000000000000000000000000000000000000000000000000000000008152506001908051906020019061009b92919061013c565b50620f42406002553480156100af57600080fd5b50600254600460003373ffffffffffffffffffffffffffffffffffffffff1673ffffffffffffffffffffffffffffffffffffffff1681526020019081526020016000208190555033600360006101000a81548173ffffffffffffffffffffffffffffffffffffffff021916908373ffffffffffffffffffffffffffffffffffffffff160217905550610240565b828054610148906101df565b90600052602060002090601f01602090048101928261016a57600085556101b1565b82601f1061018357805160ff19168380011785556101b1565b828001600101855582156101b1579182015b828111156101b0578251825591602001919060010190610195565b5b5090506101be91906101c2565b5090565b5b808211156101db5760008160009055506001016101c3565b5090565b600060028204905060018216806101f757607f821691505b6020821081141561020b5761020a610211565b5b50919050565b7f4e487b7100000000000000000000000000000000000000000000000000000000600052602260045260246000fd5b6109638061024f6000396000f3fe608060405234801561001057600080fd5b50600436106100885760003560e01c80638da5cb5b1161005b5780638da5cb5b1461011557806395d89b4114610133578063a0712d6814610151578063a9059cbb1461016d57610088565b806306fdde031461008d57806318160ddd146100ab57806342966c68146100c957806370a08231146100e5575b600080fd5b610095610189565b6040516100a291906106c3565b60405180910390f35b6100b3610217565b6040516100c09190610705565b60405180910390f35b6100e360048036038101906100de9190610605565b61021d565b005b6100ff60048036038101906100fa91906105a0565b6102d5565b60405161010c9190610705565b60405180910390f35b61011d61031e565b60405161012a91906106a8565b60405180910390f35b61013b610344565b60405161014891906106c3565b60405180910390f35b61016b60048036038101906101669190610605565b6103d2565b005b610187600480360381019061018291906105c9565b610444565b005b6000805461019690610835565b80601f01602080910402602001604051908101604052809291908181526020018280546101c290610835565b801561020f5780601f106101e45761010080835404028352916020019161020f565b820191906000526020600020905b8154815290600101906020018083116101f257829003601f168201915b505050505081565b60025481565b6000811161022a57600080fd5b600033905081600460008373ffffffffffffffffffffffffffffffffffffffff1673ffffffffffffffffffffffffffffffffffffffff1681526020019081526020016000205461027a9190610792565b600460008373ffffffffffffffffffffffffffffffffffffffff1673ffffffffffffffffffffffffffffffffffffffff16815260200190815260200160002081905550816002546102cb9190610792565b6002819055505050565b6000600460008373ffffffffffffffffffffffffffffffffffffffff1673ffffffffffffffffffffffffffffffffffffffff168152602001908152602001600020549050919050565b600360009054906101000a900473ffffffffffffffffffffffffffffffffffffffff1681565b6001805461035190610835565b80601f016020809104026020016040519081016040528092919081815260200182805461037d90610835565b80156103ca5780601f1061039f576101008083540402835291602001916103ca565b820191906000526020600020905b8154815290600101906020018083116103ad57829003601f168201915b505050505081565b80600460003373ffffffffffffffffffffffffffffffffffffffff1673ffffffffffffffffffffffffffffffffffffffff1681526020019081526020016000206000828254610421919061073c565b92505081905550806002600082825461043a919061073c565b9250508190555050565b80600460003373ffffffffffffffffffffffffffffffffffffffff1673ffffffffffffffffffffffffffffffffffffffff1681526020019081526020016000205410156104c6576040517f08c379a00000000000000000000000000000000000000000000000000000000081526004016104bd906106e5565b60405180910390fd5b80600460003373ffffffffffffffffffffffffffffffffffffffff1673ffffffffffffffffffffffffffffffffffffffff16815260200190815260200160002060008282546105159190610792565b9250508190555080600460008473ffffffffffffffffffffffffffffffffffffffff1673ffffffffffffffffffffffffffffffffffffffff168152602001908152602001600020600082825461056b919061073c565b925050819055505050565b600081359050610585816108ff565b92915050565b60008135905061059a81610916565b92915050565b6000602082840312156105b257600080fd5b60006105c084828501610576565b91505092915050565b600080604083850312156105dc57600080fd5b60006105ea85828601610576565b92505060206105fb8582860161058b565b9150509250929050565b60006020828403121561061757600080fd5b60006106258482850161058b565b91505092915050565b610637816107c6565b82525050565b600061064882610720565b610652818561072b565b9350610662818560208601610802565b61066b816108c5565b840191505092915050565b600061068360118361072b565b915061068e826108d6565b602082019050919050565b6106a2816107f8565b82525050565b60006020820190506106bd600083018461062e565b92915050565b600060208201905081810360008301526106dd818461063d565b905092915050565b600060208201905081810360008301526106fe81610676565b9050919050565b600060208201905061071a6000830184610699565b92915050565b600081519050919050565b600082825260208201905092915050565b6000610747826107f8565b9150610752836107f8565b9250827fffffffffffffffffffffffffffffffffffffffffffffffffffffffffffffffff0382111561078757610786610867565b5b828201905092915050565b600061079d826107f8565b91506107a8836107f8565b9250828210156107bb576107ba610867565b5b828203905092915050565b60006107d1826107d8565b9050919050565b600073ffffffffffffffffffffffffffffffffffffffff82169050919050565b6000819050919050565b60005b83811015610820578082015181840152602081019050610805565b8381111561082f576000848401525b50505050565b6000600282049050600182168061084d57607f821691505b6020821081141561086157610860610896565b5b50919050565b7f4e487b7100000000000000000000000000000000000000000000000000000000600052601160045260246000fd5b7f4e487b7100000000000000000000000000000000000000000000000000000000600052602260045260246000fd5b6000601f19601f8301169050919050565b7f4e6f7420656e6f75676820746f6b656e73000000000000000000000000000000600082015250565b610908816107c6565b811461091357600080fd5b50565b61091f816107f8565b811461092a57600080fd5b5056fea26469706673582212207ee7013dcf60b19ea942037baa3beda2a48912d29140611ced9934fee603cc1b64736f6c63430008040033",
  "linkReferences": {},
  "deployedLinkReferences": {}
}